{
  "contractName": "swap",
  "abi": [
    {
      "inputs": [
        {
          "internalType": "contract wrappedBNB",
          "name": "_wBNB",
          "type": "address"
        }
      ],
      "stateMutability": "nonpayable",
      "type": "constructor"
    },
    {
      "inputs": [],
      "name": "owner",
      "outputs": [
        {
          "internalType": "address payable",
          "name": "",
          "type": "address"
        }
      ],
      "stateMutability": "view",
      "type": "function"
    },
    {
      "inputs": [],
      "name": "wBNB",
      "outputs": [
        {
          "internalType": "contract wrappedBNB",
          "name": "",
          "type": "address"
        }
      ],
      "stateMutability": "view",
      "type": "function"
    },
    {
      "inputs": [],
      "name": "swapTokens",
      "outputs": [],
      "stateMutability": "payable",
      "type": "function"
    }
  ],
  "bytecode": "0x608060405234801561001057600080fd5b506040516105d93803806105d9833981810160405281019061003291906100ce565b80600160006101000a81548173ffffffffffffffffffffffffffffffffffffffff021916908373ffffffffffffffffffffffffffffffffffffffff160217905550336000806101000a81548173ffffffffffffffffffffffffffffffffffffffff021916908373ffffffffffffffffffffffffffffffffffffffff1602179055505061015b565b6000815190506100c881610144565b92915050565b6000602082840312156100e4576100e361013f565b5b60006100f2848285016100b9565b91505092915050565b60006101068261011f565b9050919050565b6000610118826100fb565b9050919050565b600073ffffffffffffffffffffffffffffffffffffffff82169050919050565b600080fd5b61014d8161010d565b811461015857600080fd5b50565b61046f8061016a6000396000f3fe6080604052600436106100345760003560e01c806373d00224146100395780638da5cb5b14610043578063d02eb3f41461006e575b600080fd5b610041610099565b005b34801561004f57600080fd5b506100586101fb565b60405161006591906102e6565b60405180910390f35b34801561007a57600080fd5b5061008361021f565b604051610090919061032a565b60405180910390f35b600034116100dc576040517f08c379a00000000000000000000000000000000000000000000000000000000081526004016100d390610345565b60405180910390fd5b6000349050600160009054906101000a900473ffffffffffffffffffffffffffffffffffffffff1673ffffffffffffffffffffffffffffffffffffffff1663a9059cbb33836040518363ffffffff1660e01b815260040161013e929190610301565b602060405180830381600087803b15801561015857600080fd5b505af115801561016c573d6000803e3d6000fd5b505050506040513d601f19601f82011682018060405250810190610190919061025a565b5060008054906101000a900473ffffffffffffffffffffffffffffffffffffffff1673ffffffffffffffffffffffffffffffffffffffff166108fc829081150290604051600060405180830381858888f193505050501580156101f7573d6000803e3d6000fd5b5050565b60008054906101000a900473ffffffffffffffffffffffffffffffffffffffff1681565b600160009054906101000a900473ffffffffffffffffffffffffffffffffffffffff1681565b60008151905061025481610422565b92915050565b6000602082840312156102705761026f6103f4565b5b600061027e84828501610245565b91505092915050565b61029081610388565b82525050565b61029f81610376565b82525050565b6102ae816103d0565b82525050565b60006102c1601283610365565b91506102cc826103f9565b602082019050919050565b6102e0816103c6565b82525050565b60006020820190506102fb6000830184610287565b92915050565b60006040820190506103166000830185610296565b61032360208301846102d7565b9392505050565b600060208201905061033f60008301846102a5565b92915050565b6000602082019050818103600083015261035e816102b4565b9050919050565b600082825260208201905092915050565b6000610381826103a6565b9050919050565b6000610393826103a6565b9050919050565b60008115159050919050565b600073ffffffffffffffffffffffffffffffffffffffff82169050919050565b6000819050919050565b60006103db826103e2565b9050919050565b60006103ed826103a6565b9050919050565b600080fd5b7f496e73756666696369656e742056616c75650000000000000000000000000000600082015250565b61042b8161039a565b811461043657600080fd5b5056fea2646970667358221220a3ce4e3271211cf388746002cdadb47512736b5545b60b2acd10fc1a8584501564736f6c63430008050033",
  "immutableReferences": {},
  "source": "pragma solidity ^0.8.5;\r\n\r\nimport \"./wrappedBNB.sol\";\r\n\r\ncontract swap{\r\n\r\n    address payable public owner;\r\n    wrappedBNB public wBNB;\r\n\r\n    constructor(wrappedBNB _wBNB) public {\r\n        wBNB = _wBNB;\r\n        owner = payable(msg.sender);\r\n    }\r\n\r\n\r\n    function swapTokens() public payable{\r\n        require(msg.value>0, \"Insufficient Value\");\r\n\r\n        uint amount = msg.value;\r\n        wBNB.transfer(msg.sender, amount);\r\n        owner.transfer(amount);\r\n    }\r\n}",
  "sourcePath": "/mnt/c/Users/Nobita/Desktop/HashStack/swap/contracts/swap.sol",
  "compiler": {
    "name": "solc",
    "version": "0.8.5+commit.a4f2e591.Emscripten.clang"
  },
  "schemaVersion": "3.4.1",
  "updatedAt": "2022-01-18T09:00:21.256Z",
  "devdoc": {
    "kind": "dev",
    "methods": {},
    "version": 1
  },
  "userdoc": {
    "kind": "user",
    "methods": {},
    "version": 1
  }
}